:100000000C9438040C9455040C9455040C94550429
:100010000C9455040C9455040C9455040C945504FC
:100020000C9455040C9455040C940F130C94A417C1
:100030000C946D270C9455040C9455040C945504A1
:100040000C9455040C9455040C9455040C945504CC
:100050000C9455040C94E6130C9455040C9455041C
:100060000C9455040C9455040C9455040C945504AC
:100070000C9455040C9455040C9455040C9455049C
:100080000C9455040C9455040C9455040C9455048C
:100090000C9455040C9455040C9455040C9455047C
:1000A0000C9455040C9455040C94550405010980D6
:1000B000A101850319012AB700150126B700950192
:1000C00075108100C0050C0901A101850419012AE0
:1000D000A002150126A002950175108100C005013E
:1000E0000906A1018505050719E029E71500250185
:1000F0009508750181020507190029EF15002501F2
:1001000095F075018102050819012905950575010C
:100110009102950175039101C005010902A1010930
:1001200001A100050919012905150025019505758D
:10013000018102950175038101050109300931151D
:1001400081257F95027508810609381581257F95DF
:100150000175088106050C0A38021581257F950175
:1001600075088106C0C005010906A101050719E04F
:1001700029E715002501950875018102950175088B
:1001800081010507190029FF150026FF0095067556
:100190000881000508190129059505750191029549
:1001A0000175039101C0000101010101010101017B
:1001B0000202020202020202020303030303030318
:1001C00003040404040404040505050505060606E5
:1001D0000606070707070708080808090909090AA2
:1001E0000A0A0B0B0B0C0C0C0D0D0D0E0E0E0F0F47
:1001F0000F101011111112121313141415151616D5
:100200001717181819191A1A1B1B1C1D1D1E1E1F43
:100210002020212222232424252626272829292A92
:100220002B2C2D2D2E2F30313232333435363738BA
:10023000393A3B3C3D3E3F404142434445464748B6
:10024000494A4C4D4E4F50515354555658595A5B8C
:100250005D5E5F616264656668696B6C6D6F70722C
:10026000737577787A7B7D7E8082838587888A8C98
:100270008E8F91939596989A9C9EA0A2A3A5A7A9CC
:10028000ABADAFB1B3B5B7BABCBEC0C2C4C6C9CBC3
:10029000CDCFD1D4D6D8DBDDDFE2E4E7E9EBEEF079
:1002A000F3F5F8FAFDFFFFAA7F5540222325262803
:1002B000292A2C2D2F3032333536383A3B3D3E40FB
:1002C00042434547494A4C4E5051535557595A5C41
:1002D0005E6062646668696B6D6F71737577797B58
:1002E0007D7F81838587898A8C8E90929496989A57
:1002F0009C9E9FA1A3A5A7A8AAACAEAFB1B3B4B66C
:10030000B8B9BBBCBEBFC1C2C3C5C6C7C9CACBCCC6
:10031000CDCED0D1D2D2D3D4D5D6D7D7D8D9D9DA99
:10032000DADBDBDBDCDCDCDCDCDDDDDDDDDCDCDC0E
:10033000DCDCDBDBDBDADAD9D9D8D7D7D6D5D4D336
:10034000D2D2D1D0CECDCCCBCAC9C7C6C5C3C2C10B
:10035000BFBEBCBBB9B8B6B4B3B1AFAEACAAA8A768
:10036000A5A3A19F9E9C9A98969492908E8C8A8920
:10037000878583817F7D7B79777573716F6D6B69FD
:1003800068666462605E5C5A5957555351504E4CD2
:100390004A4947454342403E3D3B3A383635333281
:1003A000302F2D2C2A2928262523222E002900E350
:1003B00000E100350000001E00144104001C614CE7
:1003C000004D001F001A0016001B64E6002A0020E2
:1003D0000008000700060050002C0021001500094D
:1003E0004419004F004A00220017000A00050000CF
:1003F00000045D50084600000003510000065D4FF8
:10040000086A00000039000000075D23001D000B92
:1004100000110000003D03240018000D00100051E1
:10042000004B0025000C000E00360052002800266C
:100430000012000F0037642F002B00270013003339
:1004400042386130004E002D0031003468E1000177
:100450005100000100010001000100010000003A0C
:1004600000010001000100010001003B000100014A
:100470000031020100CA5C3C002F0226022F00015D
:1004800000CB5C3D00300227023000010001003E3D
:10049000003400230235020000C45C0100010000AA
:1004A0000001000000010001000100000001000047
:1004B00000C35C3F0001000100010000002C5D4012
:1004C00000240021001E003600010041002500220A
:1004D000001F002700C65C420026002300200037D2
:1004E00000C75C430025022E0237000100010044D2
:1004F00000450001000100010000000100010001B1
:1005000000010001000000010001000100010001E4
:1005100000010001000100F20001000100010001E2
:1005200000F000F10001000100010001000100F3F2
:1005300000010001000100010001000100010000B4
:1005400000010001000100000001000000010001A5
:100550000001000000010000000100010001000195
:100560000001000000010001000100510001000134
:1005700000010001000100F4000100010001000180
:10058000000100F50001000100010001000100016F
:100590000001000100010001000100AE00010001A6
:1005A0000000000100010001000100010000000145
:1005B0000001000100010001000100010001000133
:1005C0000001000100520B010001000100040801BC
:1005D00000510B01000100010007080100010001AA
:1005E000000100010016080000AA0001000100003F
:1005F0000001000000A9000100010000000100004E
:10060000005009010001000100010000004F090134
:1006100000010001000100010001000100010001D2
:1006200000010001004F0B01000100010001000169
:1006300000500B0100010001000100010001000158
:1006400000010001000100010000000100010001A3
:10065000000100055100000100010001000100013E
:100660000001000100010001000100010001000182
:100670000001000100010001000100010001000172
:100680000001000100010001000100010001000063
:100690000001000100010000000100000001000154
:1006A00000010000000100000001000100010050F5
:1006B00000010000000100010001005100010001E3
:1006C00000010001000100520001000100010001D1
:1006D0000001004F000100010001000100010001C4
:1006E0000001000100010001000100010001000102
:1006F00000000001000100010001000100000001F4
:1007000000010001000100010001000100010001E1
:1007100000010001000100010001000100010001D1
:1007200000010001000100010001000100010001C1
:1007300000010001000100000001000100010000B3
:1007400000010000000100010001000000010000A4
:10075000000100010001004A000100000001000149
:100760000001004E00010001000100010001004BEA
:1007700000010001000100010001004D0001000125
:100780000001000100010001000100010001000161
:10079000000100010001000100000032190A0004FC
:1007A0007F3F1F643214643214783C1E1E140A0505
:1007B00009025400030100A0FA090400000103012A
:1007C00001000921110100012240000705810308F1
:1007D000000A0904010001030102000921110100BE
:1007E00001224D000705820308000A0904020001E6
:1007F00003000000092111010001226D000705839B
:100800000320000A12010002000000089732754917
:1008100001000102000122034500720067006F0021
:1008200044006F007800200045005A00200053006B
:10083000680069006E006500000030035A00530034
:100840004100200054006500630068006E006F00E6
:100850006C006F006700790020004C0061006200AE
:100860007300200049006E006300000004030904C7
:1008700011241FBECFEFDAE0DEBFCDBF26E0A4E932
:10088000B1E001C01D92A835B207E1F711E0A0E088
:10089000B1E0E8E4F6E502C005900D92A439B10795
:1008A000D9F70E94B9230C94E32A0C940000E8EDD8
:1008B000F0E080818E7F80831092E2001092DA0057
:1008C0001092E100A0EEB0E08C9181608C93808169
:1008D0008F77808319BCA7EDB0E08C918E7F8C93CD
:1008E00080818F7E80831092220608952091E400FB
:1008F0003091E50095E6A9012091EC00822F8170EE
:1009000020FF06C08091E80080FF06C080E00895C7
:100910002091E80022FD1AC080914706882389F0C3
:10092000853089F08091EB0085FD0FC02091E400B7
:100930003091E50042175307F9F29150E1F684E057
:10094000089582E0089583E0089581E00895EF928C
:10095000FF920F931F93CF937C018B010E9476042B
:10096000C82F811117C08091E80085FD0BC08091D0
:10097000E8008E778093E8000E947604882399F33C
:10098000C82F08C0F70181917F018093F1000150C9
:10099000110949F78C2FCF911F910F91FF90EF9084
:1009A00008958091490687FF13C08091E80082FF77
:1009B00006C08091E8008B778093E80004C08091A6
:1009C00047068111F2CF0895809147068823D9F315
:1009D0008091E80080FFF8CF8091E8008E77ECCF1F
:1009E000982F9093E900242F762F50E0891731F04B
:1009F0007091EC002091ED005091F00021FD07C0B6
:100A00009F5F973071F78093E90081E008953091FE
:100A1000EB003E7F3093EB003091ED003D7F309353
:100A2000ED003091EB0031603093EB007093EC00FF
:100A30002093ED005093F0002091EE0027FDE0CFD1
:100A400080E00895CF92DF92EF92FF920F931F9371
:100A5000CF93DF93C8EDD0E088818F7E8883E7ED68
:100A6000F0E080818160808384E082BF81E08093B8
:100A7000220688818E7F888302EE10E0F8011082C2
:100A80001092DA0081EEC82ED12CF60110828881F6
:100A90008F77888388818068888388818F7D888329
:100AA00019BC109247061092480610924606109202
:100AB000450690EEE92EF12CF70180818B7F808333
:100AC00088818160888342E060E080E00E94F004D9
:100AD000F60180818E7F8083F80180818160808330
:100AE000808188608083F70180818E7F8083888108
:100AF00080618883DF91CF911F910F91FF90EF90DC
:100B0000DF90CF900895FC0180914F0690915006A0
:100B100086179707A0F06115710529F49091E800F8
:100B20009E779093E80090E06115710551F4911162
:100B300008C08091E80082FF34C080E00895BC01C5
:100B4000F2CF809147068823C1F18530C1F18091B1
:100B5000E80083FD30C08091E80082FDEACF8091FB
:100B6000E80080FFE1CF8091F3002091F200382F60
:100B70006115710519F02830310558F091E02830E1
:100B8000310509F090E02091E8002E772093E800ED
:100B9000CBCF81918093F100615071092F5F3F4F5E
:100BA000E7CF80914706882341F0853041F080915E
:100BB000E80083FFBECF81E0089582E0089583E0DE
:100BC0000895089580912406089590910E06803F1F
:100BD00059F480910F0687FF0DC010920F069111F6
:100BE0000BC010920A0608C0813F81F480910F0665
:100BF00018169CF3992381F08091100690911106AC
:100C0000892B09F064C0109207060895823F49F4C9
:100C100097FFF0CF10920E0680910F068111ECCF56
:100C2000E0CF833F19F41916ACF3E4CF20911006FE
:100C3000893F29F41216F4F610921006DBCF8A3F92
:100C400019F427FFD7CFF8CF209111068B3F29F455
:100C500027FFD0CF10921106CDCF8C3F19F412167A
:100C6000CCF3C8CF843F31F480910D068E7F809302
:100C70000D06C0CF853F21F480910D068D7FF7CF03
:100C8000863F21F480910D068B7FF1CF873F21F4C1
:100C900080910D06877FEBCF883F21F480910D0670
:100CA0008F7EE5CF8D3F31F48091CB058E7F809391
:100CB000CB05A0CF8E3F21F48091CB058D7FF7CF60
:100CC0008F3F09F097CF8091CB058B7FF0CF0895B0
:100CD0008091CB0580FD1AC081FD14C082FD14C037
:100CE00080910706882391F08C3370F427E0829F6F
:100CF000C00111246CE370E00E947B28862F672BD3
:100D000029F0089583E0089587E0089581E008952B
:100D10008091CB0580FD16C081FD16C082FD18C0F4
:100D200080910A06882391F08C3390F423E2829F0D
:100D3000C00111246CE370E00E947B28862F672B92
:100D400049F0089588E0089581E1089585E00895C7
:100D500083E2089581E00895803F31F40E9488067F
:100D6000819580930F060895813F19F40E948806AB
:100D7000F8CF823F31F40E948806819580930E0659
:100D80000895833F19F40E948806F8CF893F29F41B
:100D90000E9468068093100608958A3F21F40E94FD
:100DA00068068195F7CF8B3F31F40E9468068195E4
:100DB0008093110608958C3F19F40E946806F8CFBD
:100DC000843F31F480910D06816080930D06089573
:100DD000853F21F480910D068260F7CF863F21F494
:100DE00080910D068460F1CF873F21F480910D063C
:100DF0008860EBCF883F21F480910D068061E5CFBC
:100E00008D3F31F48091CB0581608093CB050895AF
:100E10008E3F21F48091CB058260F7CF8F3FB9F7E9
:100E20008091CB058460F1CF9C014FB7F8948091FD
:100E3000C7059091C805A091C905B091CA054FBFDB
:100E4000821B930B0895209128012223C9F0209141
:100E5000E00527FF15C0E62FE695E695E695EE310D
:100E6000D8F4E80FF92FF11D677021E030E001C0E0
:100E7000220F6A95EAF7209582812823228308951C
:100E8000FC01329608962191621303C0DF0111978D
:100E90001C92E817F907B9F7089520912801222339
:100EA000C1F02091E00527FF14C0E62FE695E695F6
:100EB000E695EE31F8F4E80FF92FF11D677021E0A7
:100EC00030E001C0220F6A95EAF78281822B82838B
:100ED0000895FC0132962FEF30E04191641751F0F4
:100EE0002F3F19F4411101C0232F3F5F3630A9F77E
:100EF0002F3F09F40895820F911D27FD9A95FC015B
:100F0000628308958091C20581111092C2050895EF
:100F10008091C1059091C005892B9091BF05892BC7
:100F2000809394019091C2059923A1F0892B80931D
:100F3000940180912801882341F18091E00587FF89
:100F400024C08EE1E6E9F1E090E0815000F59111D6
:100F50000E948207E091E705F091E8053097E1F003
:100F600080912801882359F08091E00587FF07C010
:100F7000809194018093950185E080939401028093
:100F8000F381E02D84E991E0099486E0DBCF2191A3
:100F90002223D9F29F5FD9CF0895E92FEE0FE90FF1
:100FA000EE0F8E0F982F977086958695869525E083
:100FB000829FF0011124E957FA4F50E040E080E0B1
:100FC000219130E0092E02C0369527950A94E2F768
:100FD00021703327042E01C0220F0A94EAF7822BD6
:100FE0004F5F5F4F4530510559F70895E92FEE0FD8
:100FF000E90FEE0F8E0F982F977041E001C0440F5C
:101000009A95EAF786958695869595E0899FF001F1
:101010001124E957FA4F30E020E070E05191DF01F0
:101020001197CB01022E02C0969587950A94E2F79C
:10103000817081958527842385278C932F5F3F4F6F
:101040002530310559F70895809186059091550511
:10105000981301C008958F5F8770FACF882341F0FD
:1010600080959091C10589238093C1050C948807D0
:101070000895882339F09091C105982B9093C1056C
:101080000C9488070895209148023091490228174E
:10109000390771F09093490280934802E091E70587
:1010A000F091E805309721F00084F185E02D099456
:1010B000089520914602309147022817390771F0B0
:1010C0009093470280934602E091E705F091E8058E
:1010D000309721F00680F781E02D09940895E09182
:1010E000E705F091E805309721F00190F081E02DBF
:1010F000099480E00895FA01811101C0FB0109946F
:1011000080910006982F9E7F29F4817082608093E1
:10111000000608958635E8F381708465F8CFAF92B4
:10112000BF92DF92EF92FF920F931F93CF93DF93C3
:10113000082F162FE901E42FF0E0EA55FE4F611168
:1011400011C0E4915E2F4E2F4983E8835A831B829E
:10115000DF91CF911F910F91FF90EF90DF90BF90A3
:10116000AF900895E62EF12C4491D42EE42FF0E0B8
:1011700026E0829FC00111242FEF30E0B9010E94C8
:101180006728802F90E0880F991F55E5569FD00162
:10119000579FB00D11248A1B9B0B982F990F890F15
:1011A0005901AE18BF08AE9ED001AF9EB00DBE9ED5
:1011B000B00D11245B2F189F80011124012F1127DE
:1011C0005901A01AB10AAE9E8001AF9E100DBE9EBD
:1011D000100D11245901A81AB108AE9CC001AF9C92
:1011E000900DBE9C900D1124892F9927281B390B37
:1011F0002E9FC0012F9F900D3E9F900D1124E92F2F
:1012000062307105A1F050F46115710509F49CCFAD
:101210006130710581F0EB2F512F96CF643071054D
:1012200069F080F06630710509F48ECFF4CFE42FB9
:101230004B2F592F89CFE42F412F86CFEB2F542FDF
:10124000492F82CF4B2F5D2DE12F7ECF9091E0056E
:1012500092FF06C0282F28712830F9F4877F846018
:1012600093FF06C0282F28712831F1F4877E84610E
:101270002091E10520FF06C0382F38713830D9F4AD
:10128000877F816021FF06C0282F28712831D1F483
:10129000877E816194FD877E0895282F24712430F4
:1012A000F9F68B7F8860DCCF282F2471243101F779
:1012B0008B7E8861DDCF382F3171313019F78E7F09
:1012C0008860E0CF282F2171213121F78E7E88613F
:1012D000E1CFCF93DF93972F70E026E0929F600DD0
:1012E000711D1124FB0134E5839FE00DF11D1124D4
:1012F000EE0FFF1FE555FC4FC591D491CE01C238CA
:10130000D105B9F1E8F5C133D10509F499C050F51B
:10131000C932D10509F48DC0CA32D10509F497C08C
:10132000C11521E5D20708F0BFC0C11530E5D307CC
:1013300008F016C1C83ED10508F09DC0C03ED105D9
:1013400068F5C83AD10508F089C0C53AD10508F05A
:10135000FFC0C130D10511F1209709F443C0249793
:10136000E8F440C0C533D10509F45CC0C933D105E8
:10137000B9F62091E005237089F080EE90E00EC070
:10138000C33ED10591F168F4C03ED105F9F0C23EEB
:10139000D10531F62091E00522FD20C0DF91CF91EB
:1013A0000895C63ED10561F1C73ED10581F1C43E25
:1013B000D10509F0B5CF2091E10521FFEFCF809154
:1013C000E00584FD0FC087EE90E0E8CF2091E005B6
:1013D00020FD12C13091E10530FFE0CF83EE90E0B7
:1013E00024FFDCCF90E080E0D9CF2091E00522FD02
:1013F00006C13091E10530FDC0CF24FFCFCFF2CF41
:101400002091E00523FFCACF24FDECCFDCCF209153
:10141000E00523FDF7C03091E10531FFEECF84EE0A
:1014200090E0BCCF2091E00525FFB8CF89E290E0A5
:10143000B5CF2091E00525FFB1CF85E390E0AECF99
:101440002091E00526FFAACF8AE290E0A7CF209165
:10145000E00526FFA3CF81E390E0A0CFCF3BD105ED
:1014600008F6C85AD0E0CC0FDD1FC95ADE4F88817C
:101470009981946493CFC11520E2D20760F4C1151D
:1014800031E0D30708F08ACFCE019065C03FD10587
:1014900008F084CFA7CFC11580E4D80708F4A2CF05
:1014A000CE019F70906A7ACFC11595E5D90710F5E6
:1014B000C11524E5D20708F088C0C11533E5D3076C
:1014C00008F06FC0C11582E5D80708F465C09E0119
:1014D0002370332781E090E002C0880F991F2A957E
:1014E000E2F7C695C69520E2C29FE00111248C2B3D
:1014F0009D2B50C0C11599E5D907A0F4C11528E569
:10150000D20708F067C0C11536E5D30708F06ACFE7
:101510008C2F0E94260990E0982F882788279F719A
:1015200090623CCFC1158AE5D80708F458C0CE01B7
:1015300090568115904208F055CF8D2F8F710E94E3
:10154000260990E0982F882788279F718C2BE8CF59
:10155000C55AD0E0CC5ADE4F888190E090641ECF0F
:101560009E01E4E036952795EA95E1F723708C2FEC
:1015700086958695837030E2839FC0011124922B5B
:10158000C37021E030E002C0220F331FCA95E2F79A
:10159000822B932B9C6802CF9C2F8827816F906AA7
:1015A000FDCE9E012370332781E090E002C0880FBA
:1015B000991F2A95E2F7C695C69530E2C39FE001D0
:1015C00011248C2B9D2B9A68E9CE9C2F8827846F41
:1015D000906AE4CE9C2F8827806F906ADFCE8C2F94
:1015E0008F700E94260934E0D695C7953A95E1F7A9
:1015F000CF709C2F9069D2CE89E390E0CFCE82EE5F
:1016000090E0CCCE86EE90E0C9CEBF92CF92DF9232
:10161000EF92FF920F931F93CF93DF938C01C090B3
:10162000E305D090E405E090E505F090E6058091B3
:10163000C3059091C405A091C505B091C605C82AFF
:10164000D92AEA2AFB2ACFE1D0E0BC2ED701C60175
:101650000C2E04C0B695A795979587950A94D2F756
:1016600080FD0EC0219788F7B12C8B2DDF91CF9193
:101670001F910F91FF90EF90DF90CF90BF90089552
:10168000B8018C2F0E946909019761F3EECFCF93C7
:10169000DF93EC010E94050BBE01DF91CF910C940A
:1016A00069090E94470B292F2F7092959F709250C5
:1016B0009E3078F4E92FF0E0EB51F54D0C948F2833
:1016C000803F19F020F4883E20F481E00895843FA3
:1016D000E1F380E00895883EC0F3813FD1F7F5CF74
:1016E000822F869586958695089527982F98089538
:1016F00026982E98089525982D98089556985E98C6
:101700000895279A2F9A0895269A2E9A0895259A31
:101710002D9A0895CF92DF92EF92FF92CF936B01B3
:101720007C01C701AA27BB27C0E10097A105B1052D
:1017300019F4D701CB01C0E0492F5A2F6B2F77271F
:10174000411551056105710519F0C85FDB01CA013A
:10175000AC01BD01E4E07695679557954795EA950C
:10176000D1F7411551056105710519F0CC5FDB0119
:10177000CA01AC01BD0132E0769567955795479552
:101780003A95D1F7411551056105710519F0CE5F04
:10179000DB01CA01B695A79597958795892B8A2B6A
:1017A0008B2B09F0CF5F0E947E0B0E947B0B0E9467
:1017B000780B0E94750BC150C73040F4EC2FF0E05D
:1017C000ED50F54D0C948F280E94870BC701B60190
:1017D000CF91FF90EF90DF90CF9008950E94870BFC
:1017E0000E94840BF3CF0E94870B0E94810BEECFE7
:1017F0000E94870B0E94840BF8CF2098289821988C
:10180000299822982A9823982B9852985A98539856
:101810005B983E98469808958098889A8198899A0E
:1018200084988C9A85988D9A86988E9A87988F9AA4
:101830000895CF93DF9300D00F92CDB7DEB790918C
:101840004706943019F589837B836A8383E080930C
:10185000E9008FEF9091E800815095FD06C095ED6D
:101860009A95F1F700008111F5CF8091E80085FF8E
:101870000DC050E040E063E070E0CE0101960E94B0
:10188000A7048091E8008E778093E8000F900F9076
:101890000F90DF91CF910895BC0184E00C94190C56
:1018A000BC0183E00C94190C9C0182E08093E90058
:1018B0009FEF8091E800915085FD06C085ED8A95E7
:1018C000F1F700009111F5CF8091E80085FF0CC081
:1018D00050E040E065E070E0C9010E94A7048091FB
:1018E000E8008E778093E8000895CF93DF93EC01B2
:1018F000809128018823B1F18091E00587FF32C0F3
:1019000060E283E08093E9008FEF9091E8008150DE
:1019100095FD06C095ED9A95F1F700008111F5CF80
:101920008091E80085FF1BC08091280170E050E0A5
:1019300040E0811104C050E040E068E070E0CE017A
:101940000E94A7048091E8008E778093E80080E2EF
:10195000FE01A5E2B6E001900D928A95E1F7DF91D4
:10196000CF91089568E081E0CDCFEF92FF920F9381
:101970001F93CF93DF930E947E0B0E947B0B0E94EC
:10198000780B0E94750B88E8E82EF12C8FEF90E021
:10199000F701918380830AE810E0F8019183808346
:1019A000CCE8D0E0998388830E94870BFFEF20E783
:1019B00082E0F15020408040E1F700C000000E942A
:1019C000840B9FEFE0E7F2E09150E040F040E1F758
:1019D00000C000000E94810B2FEF80E792E02150B1
:1019E00080409040E1F700C000000E947B0BEFEFC9
:1019F000F0E722E0E150F0402040E1F700C00000B5
:101A00000E94780B8FEF90E7E2E081509040E04039
:101A1000E1F700C000000E94750B8091CE05877031
:101A2000FFEF8F9FC0011124959587959595879518
:101A30009927F70191838083F801918380839983AB
:101A400088830E947E0B0E947B0B0E94780BDF91A3
:101A5000CF911F910F91FF90EF900C94750BCF9346
:101A600084E090E00E94382AC82F81E290E00E9432
:101A7000382A982F8C2FCF910895CF92DF92EF9232
:101A8000FF926B017C010E948008B701A60188E0EB
:101A900090E0FF90EF90DF90CF900C945E2A8091C1
:101AA0000406882319F08150809304066091000693
:101AB0007091010680910206909103060C943D0DF1
:101AC00080910406833018F48F5F80930406609140
:101AD00000067091010680910206909103060C9415
:101AE0003D0DE0E0F6E083E0808311828FEF82839A
:101AF0008383148260817181828193810C943D0D76
:101B00006FEE7EEF90E080E00E946A2A60E082E063
:101B100090E00E944C2A60E083E090E00E944C2A12
:101B20001092C3051092C4051092C5051092C60507
:101B300060E084E090E00E944C2A60E081E290E066
:101B40000E944C2A60E085E090E00E944C2A60E010
:101B500086E090E00E944C2A6FEF87E090E00E94C0
:101B60004C2A40E050E0BA0188E090E00E945E2AF2
:101B700060E08DE090E00E944C2A40E050E0BA0125
:101B800088E190E00E945E2A60E087E190E00E9498
:101B90004C2A40E050E0BA018CE190E00E945E2ABD
:101BA00060E080E290E00E944C2A40E050E0BA0100
:101BB00088E190E00E945E2A1092CE051092CF0537
:101BC0001092D0051092D10584E080618093CE05FB
:101BD0004091CE055091CF056091D0057091D1050F
:101BE0008FE090E00E945E2A40E050E0BA0183E17D
:101BF00090E00C945E2ACF93C82F873070F58091C7
:101C00001C0190911D01892B89F564E670E080E448
:101C10000E949A2790931D0180931C01892BD1F477
:101C200064E670E082E10E94F62790931D018093A4
:101C30001C01892B79F481E090E001C0880FCA95DE
:101C4000EAF764E670E080950E94F62790931D0104
:101C500080931C01CF910C9449288A30B9F040F44C
:101C6000883071F0893079F0209A2898CF910895C2
:101C70008C3091F070F08D30B9F73E9A4698F6CFDF
:101C8000219A2998F3CF229A2A98F0CF239A2B9859
:101C9000EDCF529A5A98EACF539A5B98E7CFCF93F9
:101CA000DF938091000680FD0BC0EFEBF1E0118225
:101CB000108212821382349651E0EB3FF507B9F798
:101CC000CFEBD1E0FE01928120813181892F29174C
:101CD00008F4822F381708F4832F8383381B31834D
:101CE000281B2083981B9283349681E0EB3FF807F2
:101CF00051F70E94942764E670E084E80E949A27D6
:101D000064E670E088810E94F62764E670E08981CD
:101D10000E94F62764E670E08A810E94F62764E656
:101D200070E08B810E94F627249691E0CB3FD90783
:101D300039F70E944928579A3BB13F772BB1206869
:101D40004FB7F8948FEB91E0FC015191CF0168E01F
:101D50002BB9000000C057FF3BB9550F000000C071
:101D600000C000C03BB900C06A9591F7F1E08B3F1D
:101D70009F0751F74FBF8FE594E00197F1F700C03F
:101D80000000DF91CF9108958F929F92AF92BF9202
:101D9000CF92DF92EF92FF920F931F93CF93DF9337
:101DA000FC01B280948081E08483CBEFD1E00FEB23
:101DB00011E08BE4A82E88248394EE24EA94F12C7D
:101DC0002BE4C22ED12C91101DC01B821A829801C7
:101DD0004A81698188810E948F0825960C5F1F4F78
:101DE00082E0C634D80779F7DF91CF911F910F9128
:101DF000FF90EF90DF90CF90BF90AF909F908F902B
:101E00000C944F0E2B81222309F121502B833C810E
:101E10008A2D821B311101C0822F90910306899F68
:101E2000C0011124B6010E9467286A83211104C0F1
:101E3000332311F01C82AB8222E02B1540F28091FB
:101E400001068883809102068983C1CF0E94F02811
:101E5000823091400CF0BBCF82E08B15C0F40E9421
:101E6000F028B7010E947B28888322E02B1590F48C
:101E70000E94F028209102062695622F70E00E94B1
:101E80007B28280F29831A82AB828C82A0CF809175
:101E90000106EACF20910206F5CFEF92FF921F9341
:101EA000CF93DF93EC018FEBE82E81E0F82E10E06A
:101EB0008C8197014091030660910206810F0E9478
:101EC0008F081F5E84E0E80EF11C1F3F89F70E9417
:101ED0004F0E9A818C8190FF08C08F5F8C83DF91B9
:101EE000CF911F91FF90EF9008958150F7CFBF924F
:101EF000CF92DF92EF92FF920F931F93CF93DF93D6
:101F0000FC018281DD24DA9480FD02C0DD24D394BB
:101F10000FEB11E0D0E0C0E02FE0B22EF80111820B
:101F200010821282138294E0E92EF12CC12C809150
:101F3000BC018C0D80310CF43DC06B2D0E945928E2
:101F4000892F082E000C990B8C179D0791F4809116
:101F500003068E9DA0018F9D500D11245595479528
:101F600055954795980160910206809101060E945F
:101F70008F08CD0CF1E0EF1AF108C9F621960C5F3D
:101F80001F4FCF30D10551F60E944F0E8091BC01FA
:101F900091E0D91215C0811111C08EE08093BC016F
:101FA000DF91CF911F910F91FF90EF90DF90CF9035
:101FB000BF90089587FFC5CF815FC3CF8150EECF1B
:101FC00090E00196BE010E947B28E8CF0F931F93FB
:101FD000CF93DF93CFEBD1E0FE011182108212820A
:101FE0001382349681E0EB3FF807B9F710E000E088
:101FF0008091BD01082E000C990B081719078CF170
:1020000080911601082E000C990B801791074CF156
:102010009E014091030660910206809101060E9494
:102020008F080F5F1F4F24960F30110509F70E948C
:102030004F0E809115019091BD01980F9093BD01B5
:1020400020911601280F20931601121614F49E30C9
:102050001CF0819580931501DF91CF911F910F9115
:102060000895198218821A821B82DBCF8F929F9269
:10207000AF92BF92CF92DF92EF92FF920F931F9396
:10208000CF93DF93EC014C81042F10E09801D8012D
:102090000E94D42A9B01AC010E949F2A4B015C0143
:1020A000E0E2F0E0E01BF10BA5E5B0E0AC019B0144
:1020B0000E949F2A6B017C019F01DF010E949528ED
:1020C0009B01AC010E94AA2A9B01AC01280D391D7D
:1020D0004A1D5B1DC701B6010E94B22AF22E822F53
:1020E00090E039E23F15D8F143E0249F900111249C
:1020F00035952795122F10959FEBC92E91E0D92E7B
:1021000000E085E5E82EEF188E2D01FD8F2D96015C
:10211000412F609102060E948F080F5F54E0C50EA8
:10212000D11C0F3089F70E944F0E9C8181E09923CA
:1021300019F0903219F48FEF8093170180911701F5
:10214000890F8C83DF91CF911F910F91FF90EF90BA
:10215000DF90CF90BF90AF909F908F90089525E52E
:1021600030E0A901481B590BCA019A01220F331F05
:10217000280F391F37FFBCCF2F5F3F4FB9CFEF92EA
:10218000FF920F931F93CF93DF938C01CFEBD1E09E
:10219000F12CE12CF80194816091020680910106F6
:1021A000F7E0EF16F104FCF49923F9F09E01409159
:1021B00003060E948F082FEFE21AF20A24968FE09E
:1021C000E816F10439F70E944F0EF801848190E07F
:1021D0000196817099278483DF91CF911F910F9190
:1021E000FF90EF900895992309F39E0140E0E1CF1D
:1021F0009091000690FF0DC0EFEBF1E081836083CA
:1022000042831382349691E0EB3FF907B9F70C94BF
:102210004F0E08950F931F93CF93DF9300D000D0FC
:10222000CDB7DEB78C018091BE0181110AC09E013D
:102230002F5F3F4F4FEF6FEF0E948F088A8180938F
:10224000BE01F8016481613069F08091BE0140E017
:10225000662361F040E0623011F44091BE0180E0FD
:1022600060E004C06091BE0140E080E00E94F81090
:10227000F801848190E0019663E070E00E947B2881
:1022800084830F900F900F900F90DF91CF911F914B
:102290000F910895CF93DF9300D000D0CDB7DEB774
:1022A0009091000690FF0AC09E012F5F3F4F0E9451
:1022B0008F084B8169818A810E94F8100F900F90DE
:1022C0000F900F90DF91CF910895CF93DF93EC01A2
:1022D000EC81F0E0E555FD4F4491E0E0F6E06281ED
:1022E00081810E944A118C818F5F8C83DF91CF9115
:1022F0000895CF93DF93EC01E0E0F6E04381628143
:102300008C810E944A118C818F5F8C83DF91CF91E9
:1023100008955F926F927F928F929F92AF92BF9239
:10232000CF92DF92EF92FF920F931F93CF93DF93A1
:1023300000D000D0CDB7DEB7182F762E042F622E36
:102340009091000690FF29C0E92FE695AE2FB0E0EE
:10235000A75DBE4F8C91809305069E7F923089F5D4
:102360009E012F5F3F4F812F0E948F084B81698113
:102370008A810E94F8101093010670920206009361
:102380000306662051F0609100067091010680916D
:102390000206909103060E943D0D0F900F900F9042
:1023A0000F90DF91CF911F910F91FF90EF90DF90F1
:1023B000CF90BF90AF909F908F907F906F905F90E5
:1023C0000895823019F400910306D5CF863019F4B0
:1023D00010910106D0CF8930D9F3893161F6E951E6
:1023E0008E2F8170582EE695F0E0EA55FD4FA590AE
:1023F000B490BB248FEBE82E81E0F82ED12CC12CB9
:102400009FE0892E912CC601B4010E946728812F7C
:10241000511013C0860F9701402F672D0E948F081F
:10242000CA0CDB1C84E0E80EF11C8BEFE81681E09F
:10243000F80649F70E944F0E9ECF861BECCFE0E0D6
:10244000F6E043812CE0421B08F440E021E0628189
:1024500081810C948911E0E0F6E043812CE0420F89
:1024600008F44FEF21E0628181810C948911E0E052
:10247000F6E062812FEF621B08F460E021E0438107
:1024800081810C948911E0E0F6E062812FEF620F08
:1024900008F46FEF21E0438181810C948911E0E021
:1024A000F6E0818121E0438162818C500C94891196
:1024B000E0E0F6E0818121E043816281845F0C9459
:1024C000891180E290E090931D0180931C0180911E
:1024D000B40181110EC00E94942781E08093B40161
:1024E0002FEF83ED90E3215080409040E1F700C052
:1024F000000064E670E080E40E949A2790931D013A
:1025000080931C01892B09F04EC064E670E080E0E6
:102510000E94F62790931D0180931C01892B09F0DE
:1025200042C064E670E080E00E94F62790931D01AF
:1025300080931C01892BB9F564E670E08FE30E945B
:10254000F62790931D0180931C01892B61F50E9451
:10255000492864E670E080E40E949A2790931D0168
:1025600080931C01892BF9F464E670E08CE00E94F2
:10257000F62790931D0180931C01892BA1F464E63A
:1025800070E080E00E94F62790931D0180931C016B
:10259000892B49F464E670E08FE30E94F62790935C
:1025A0001D0180931C010E94492880911C010895FF
:1025B000CF93873050F580911C0190911D01C0E0B0
:1025C000892B71F464E670E081E40E949A2790936D
:1025D0001D0180931C01892B31F0C0E00E94492825
:1025E0008C2FCF91089584E690E00E94252897FFD4
:1025F00005C090931D0180931C01EFCFC82FC0959B
:1026000010921D0110921C01E9CFCFB18FB18695B8
:1026100086958C73C3708C2BC82FC095E1CF1F9209
:102620000F920FB60F9211242F933F934F935F9306
:102630006F937F938F939F93AF93BF93EF93FF938A
:102640008091E10082FF09C08091E20082FF05C015
:102650008091E1008B7F8093E1008091DA0080FF20
:1026600024C08091D80080FF20C08091DA008E7F46
:102670008093DA008091D90080FF9BC080E189BD02
:1026800082E189BD09B400FEFDCF81E08093470659
:1026900080912206811109C00E9457040E942205E0
:1026A0008091E20084608093E2008091E10080FFED
:1026B00017C08091E20080FF13C08091E2008E7FFE
:1026C0008093E2008091E20080618093E20080913B
:1026D000D80080628093D80019BC85E080934706BB
:1026E0008091E10084FF29C08091E20084FF25C031
:1026F00080E189BD82E189BD89B5982F917080FF05
:10270000FBCF8091D8008F7D8093D8008091E1002D
:102710008F7E8093E1008091E2008F7E8093E200C3
:102720008091E20081608093E200809148068823D6
:1027300009F445C084E0809347068091E10083FF5F
:1027400027C08091E20083FF23C08091E100877F52
:102750008093E10082E080934706109248068091C2
:10276000E1008E7F8093E1008091E2008E7F809374
:10277000E2008091E20080618093E20042E060E04C
:1027800080E00E94F0048091F00088608093F00067
:10279000FF91EF91BF91AF919F918F917F916F9139
:1027A0005F914F913F912F910F900FBE0F901F900F
:1027B000189519BC109247061092220676CF809188
:1027C000E30087FD93E090934706B7CF78941F927C
:1027D0001FB61F9211248F939F93AF93BF93809145
:1027E000C7059091C805A091C905B091CA05019689
:1027F000A11DB11D8093C7059093C805A093C9057D
:10280000B093CA05BF91AF919F918F911F901FBE4A
:102810001F9018952FB7F8948091C7059091C8051F
:10282000A091C905B091CA052FBF08950E940A144E
:102830009C0190910E0680910F06982B21F0309309
:102840000C0620930B069091100680911106982B90
:1028500021F03093090620930806E091E705F091F6
:10286000E805309731F00480F581E02D8DE096E0A9
:10287000099408951092C0051092BF050E94880720
:1028800085E0EDE0F6E0DF011D928A95E9F7109210
:102890000A06109207061092CB050E94161490E0CB
:1028A00080E00E94590890E080E00C9443080E9468
:1028B0008A0B6093E3057093E4058093E50590939C
:1028C000E6050C943A140F931F9341E050E060E04A
:1028D00070E004C0440F551F661F771F8A95D2F71A
:1028E000CB01BA0160957095809590950091E305B4
:1028F0001091E4052091E5053091E60560237123F0
:10290000822393231F910F910C9457149091BE052D
:10291000809589238093BE05282F277071F4282F76
:10292000082E000C330B9217130639F08595859508
:1029300085950E9463141092BE0508950F931F930E
:1029400041E050E060E070E004C0440F551F661F96
:10295000771F8A95D2F78091E3059091E405A091C5
:10296000E505B091E6058A019B01082B192B2A2B5E
:102970003B2BC901B8011F910F910C94571460E0D3
:1029800070E0CB010C9457146093C3057093C40599
:102990008093C5059093C6050C943A141092C10516
:1029A00080912801E6E9F1E0882359F08091E00563
:1029B00087FF07C08EE1DF011D928A95E9F70C942D
:1029C0003A1486E0F8CF1F93CF93DF93CDB7DEB7ED
:1029D000AA970FB6F894DEBF0FBECDBF89E496E08C
:1029E0002091F100DC012D93CD01B6E081359B07EC
:1029F000B9F780914A06833009F471C0B8F4813088
:102A000009F448C0823009F4B2C08091E80083FF25
:102A100083C28091490690914A069A3008F07CC2A0
:102A2000E92FF0E0E650F54D0C948F288A3009F438
:102A30008DC08B3009F470C0893039F78091490618
:102A4000813219F780914D0690914E06009711F052
:102A50000297D9F68091E800877F8093E800809103
:102A6000E80082FF37C09091F3008091F200029756
:102A700029F48091F1008B7F813021F48091F10065
:102A8000809324068091E8008B778093E8000E9471
:102A9000D104BBCF80914906813A09F0B6CF80912D
:102AA000E800877F8093E80080914D0690914E0664
:102AB000892B61F460E285E296E070E00E94830574
:102AC0008091E8008B778093E8009FCF60E090E0F2
:102AD00080E0F3CF809147068111C1CF96CF8091DE
:102AE0004906813A09F091CF80914D0690914E06AA
:102AF000892B09F08ACF8091E800877F8093E800D6
:102B00008091E80080FFFCCF809128018093F10044
:102B10008091E8008E77B9CF80914906813209F023
:102B200074CF80914D0690914E06892B09F06DCFA0
:102B30008091E800877F8093E8000E94D104809113
:102B40004B06809328010E94CE145FCF80914906E6
:102B5000813209F05ACF8091E800877F8093E800A6
:102B60000E94D10480914C06809323064ECF809121
:102B70004906813A09F049CF8091E800877F809328
:102B8000E8008091E80080FFFCCF80912306BECF53
:102B9000803899F0823809F0BFC180914D068F705E
:102BA000873008F0B9C18093E9008091EB0085FB84
:102BB000882780F91092E90006C08091450690911F
:102BC0004606911182609091E800977F9093E8000B
:102BD0008093F1001092F1008091E8008E7798C107
:102BE000882309F486C1823009F096C180914B0692
:102BF000811189C180914D068F702FEF280F2630EB
:102C000008F08AC18093E9002091EB0020FF7BC18E
:102C1000933031F48091EB0080628093EB0073C1BC
:102C20009091EB0090619093EB0021E030E001C0C7
:102C3000220F8A95EAF72093EA001092EA00809129
:102C4000EB008860EACF811167C110914B061F77B6
:102C50008091E3008078812B8093E3008091E800ED
:102C6000877F8093E8000E94D1048091E80080FF74
:102C7000FCCF8091E30080688093E30082E0111133
:102C800083E08093470648C18058823008F044C1F1
:102C900020914B0630914C062C3DE3E03E07A1F518
:102CA00083E08A838AE289834FB7F894DE01139622
:102CB00020E03EE051E2E32FF0E050935700E49132
:102CC00020FF03C0E295EF703F5FEF708E2F90E022
:102CD000EA30C0F0C7968D939D932F5F243159F74A
:102CE0004FBF8091E800877F8093E8006AE270E040
:102CF000CE0101960E9483058091E8008B77809336
:102D0000E8000AC1C096E7CF80914D0690914E062B
:102D1000432F55274330510509F44AC078F5413017
:102D2000510509F47AC084E590E0E0EBF7E0423029
:102D3000510509F0F1C02091E800277F2093E800B9
:102D400020914F06309150068217930708F49C019A
:102D500040E02115310509F065C0411163C0809143
:102D6000E80082FDC9CF80914706882329F285308B
:102D700019F28091E80083FFF2CFBECF41325105B6
:102D800009F43CC04232510509F0C6C083309105B8
:102D900008F0C2C0FC01EE0FFF1FE857FE4F019084
:102DA000F081E02D8B579E4FDC018C9190E01AC092
:102DB000332721303105D1F02115310561F0223062
:102DC000310509F0A9C0E6E1F8E0E4918E2F90E02A
:102DD000E6E1F8E007C0ECE6F8E0E4918E2F90E041
:102DE000ECE6F8E0009709F497C0A5CFEAE3F8E035
:102DF000E4918E2F90E0EAE3F8E0F4CF8330910580
:102E000008F08AC0880F991FFC01E257FE4F01901D
:102E1000F081E02D89E090E08ECF82E190E0E4E067
:102E2000F8E089CF80914706882309F465CF853083
:102E300009F462CF8091E80083FD5ECF8091E800C5
:102E400082FD8DCF8091E80080FF83CF9091F300C9
:102E50008091F2002115310519F08830910550F06C
:102E600041E0089709F040E08091E8008E77809378
:102E7000E8006FCF44914093F10031962150310921
:102E80000196E8CF803809F047C08091E800877F3D
:102E90008093E800809148068093F1009DCE8111D7
:102EA0003BC010914B061230B8F58091E800877F47
:102EB0008093E800109348060E94D104112311F07A
:102EC00084E005C08091E30087FDFACF81E0809324
:102ED000470642E061EC81E00E94F00442E061ECD0
:102EE00082E00E94F00442E261EC83E00E94F00480
:102EF00013C080914B06813079F481E0933009F062
:102F000080E0809346061092E9008091E800877F78
:102F10008093E8000E94D1048091E80083FF0AC0FA
:102F20008091E800877F8093E8008091EB008062C9
:102F30008093EB00AA960FB6F894DEBF0FBECDBF0C
:102F4000DF91CF911F9108951F920F920FB60F92AC
:102F500011242F933F934F935F936F937F938F939E
:102F60009F93AF93BF93CF93DF93EF93FF93D09152
:102F7000E900DF708091EC00C82FC17080FDC0E8CF
:102F80001092E9008091F000877F8093F0007894A0
:102F90000E94E3141092E9008091F0008860809311
:102FA000F000CD2BCF70C093E900FF91EF91DF913E
:102FB000CF91BF91AF919F918F917F916F915F91D1
:102FC0004F913F912F910F900FBE0F901F9018952A
:102FD0008823B1F19CEF980F913A38F4682F84E977
:102FE00091E00E9423070C94880790E2980F983094
:102FF00088F4877021E030E0A90102C0440F551F1A
:103000008A95E2F7CA0180959091C1058923809342
:10301000C105E9CF9BE5980F933020F490E080E064
:103020000C94590898E5980F973120F490E080E0CF
:103030000C944308803F20F00E94E5050C94161480
:103040000895CF93C82F882309F46EC08CEF8C0F9E
:10305000813AB8F580912801882311F18091E0052B
:1030600087FF1EC0EC2FE695E695E695F0E0EC565E
:10307000FE4F828190E04C2F477021E030E002C08B
:10308000220F331F4A95E2F782239323892B89F07D
:103090006C2F84E991E00E9423070E94880709C0F1
:1030A000E6E9F1E08191C81799F381E0EC39F8077E
:1030B000C9F76C2F84E991E00E944D07CF910C94E1
:1030C000880780E28C0F883068F4C77021E030E018
:1030D00001C0220FCA95EAF78091C105822B809327
:1030E000C105ECCFEBE5EC0FE33040F4F0E0EC5A37
:1030F000FE4F808190E0CF910C945908E8E5EC0FE9
:10310000E73150F4F0E0EE0FFF1FE95AFE4F8081E7
:103110009181CF910C944308C03F30F08C2F0E94D6
:10312000AC06CF910C941614CF9108950F931F9372
:10313000CF93DF93C62FD42F022FFC0182818823E7
:10314000A1F0609353060E940A1490935206809354
:103150005106C77081E001C0880FCA95EAF7DF9178
:10316000CF911F910F910C943908809153066813E9
:1031700038C080915106909152060E941407883CF5
:10318000910578F510E21D0FCD17B9F080E28C0F94
:10319000883040F4C77081E001C0880FCA95EAF713
:1031A0000E942E08183048F481E09D2F977001C0CE
:1031B000880F9A95EAF70E943908802F0E942118FB
:1031C000802F0E94E817183098F4D77081E001C072
:1031D000880FDA95EAF7DF91CF911F910F910C9448
:1031E0002E08C77081E001C0880FCA95EAF7F3CFB7
:1031F000DF91CF911F910F91089560910006669520
:1032000070E04BE050E08AE091E00E942B2A892B8D
:1032100019F481E0809306060E940A149093FB053E
:103220008093FA0508959091000690FF36C0917042
:10323000811129C0926090930006662351F060913D
:1032400000067091010680910206909103060E948B
:103250003D0D60910006669570E04BE050E08AE01D
:1032600091E00E942B2A892BA9F01092060681E09A
:103270008093FD0520E04091030660910206809155
:1032800001060C9489118B3210F09465D4CF880F0D
:10329000982BD1CF0E94FD18EACF089580910006A7
:1032A0008695815009F48AE261E00C9413198091AB
:1032B000000686958F5F8B3208F081E061E00C9408
:1032C00013199091000690FF07C09695981720F06B
:1032D000961710F40C94571961E00C9413194F923F
:1032E0005F926F927F928F929F92AF92BF92CF9296
:1032F000DF92EF92FF920F931F93CF93DF9300D053
:1033000000D00F92CDB7DEB77C01FC0183819481A0
:10331000892B39F01081D180812F8D218F3F09F0C9
:103320009EC60F900F900F900F900F90DF91CF914E
:103330001F910F91FF90EF90DF90CF90BF90AF90D3
:103340009F908F907F906F905F904F9008950E9414
:10335000050B082F682F89819A810E94F607E12FBB
:10336000F0E026E0D29EE00DF11D112434E5039F2C
:10337000E00DF11D1124EE0FFF1FE555FC4F0591E7
:10338000149180914D05811133C1F7018281811122
:103390000CC00530FDE51F0709F4EFC008F092C02E
:1033A00004303DE5130709F4B3C00A322DE51207D6
:1033B00009F0C5C1F70182818823C9F18091CE054A
:1033C00091E0980F9770887F953008F4892B80934F
:1033D000CE058091CE058770FFEF8F9FC00111242D
:1033E00095958795959587959927909389008093D2
:1033F000880090938B0080938A0090938D00809337
:103400008C004091CE055091CF056091D005709110
:10341000D1058FE090E00E945E2A6091E3057091F3
:10342000E4058091E5059091E6050E948A0BF7017D
:103430009281992309F424C6109253060230FCE5C8
:103440001F0708F49CC206312CE5120738F09801DA
:103450002B5F3C452730310508F091C20E942F0DAB
:103460009093E1058093E0050F303CE5130709F4E4
:1034700067C208F0E1C108309CE5190709F44AC2A7
:1034800008F0B6C10430FCE51F0709F437C208F0A4
:103490009CC102303CE5130709F428C203301C45E7
:1034A00009F428C26091E0051091E10584E090E004
:1034B0000E944C2A612F81E290E00E944C2A0E94D7
:1034C000CE1439C007308DE5180709F46BC00830F9
:1034D0009DE5190709F069CFC0901801D090190136
:1034E0008090E3059090E405A090E505B090E60596
:1034F0000E94CE140E94BF1405E415E0C016D10648
:1035000009F465C0C8010E946F1906501109F6CF71
:1035100011E010934A020E940A140E94870B0E9435
:10352000CE140E94BF148BE492E090934C058093DC
:103530004B0510934D058091BE05877009F4F1CEBF
:10354000F7018281882309F4ECCE82E00F900F907E
:103550000F900F900F90DF91CF911F910F91FF90DF
:10356000EF90DF90CF90BF90AF909F908F907F9023
:103570006F905F904F900C94861481E080934A0284
:103580000E940A140E94870B0E94CE140E94BF144E
:1035900085E495E090934C0580934B0582E0809301
:1035A0004D05C9CFC0901A01D0901B018090E30552
:1035B0009090E405A090E505B090E6050E94CE1439
:1035C0000E94BF140BE412E0C016D10659F40E9409
:1035D000CE148092E3059092E405A092E505B092A6
:1035E000E605A9CFC8010E946F190A5F1F4FECCFF3
:1035F000980124503D452330310508F051C091E039
:1036000006301D4509F490E0F7012281291709F4DD
:1036100092CF813029F0823019F110924D058BCF75
:1036200000914B0510914C0510924A026091E30500
:103630007091E4058091E5059091E6050E948A0B62
:10364000F2E00B341F0729F0F801369782818111CF
:1036500005C010931B0100931A01DFCF8F01F0CF3B
:1036600000914B0510914C0510924A026091E305C0
:103670007091E4058091E5059091E6050E948A0B22
:1036800025E00534120729F0F80136968281811170
:1036900005C01093190100931801BFCF8F01F0CF1F
:1036A000813031F1823009F080CE20911A013091C1
:1036B0001B01A0914B05B0914C05F701828181114E
:1036C00005C0F5E0A534BF0709F46FCECD0106961D
:1036D0002817390709F469CE86E0F70101900D92A9
:1036E0008A95E1F780914B0590914C05069722C091
:1036F0002091180130911901A0914B05B0914C0512
:10370000F7018281811105C0F2E0AB34BF0709F4F3
:103710004CCECD0106972817390709F446CE86E02E
:10372000F70101900D928A95E1F780914B059091F8
:103730004C05069690934C0580934B0536CE0C3283
:103740002DE5120741F4F7018281882309F4F3CEB5
:1037500061E081E04FC1043FFCE51F0739F1A0F4AF
:10376000093D3CE51307F1F00A3D8CE5180751F1DE
:10377000083D9CE5190709F05ACE26E241EE61EEBC
:10378000C7010E949618D7CE063FECE51E07B1F0A0
:1037900088F0073F2CE5120709F049CE27E245EEF5
:1037A00066EEEECF27E245EE65EEEACF26E241EE89
:1037B00060EEE6CF27E245EE64EEE2CF26E241EE90
:1037C00062EEDECF28E241E0EFCF8091E00580613C
:1037D00006309CE5190709F447C08091E005886030
:1037E00007301C4508F440C08091E00580623CC071
:1037F0000B30FCE51F0709F49BC068F409303CE579
:10380000130709F48BC00A301C4509F04BCE809198
:10381000E0058C6029C08091E0058B7F0D309CE530
:10382000190711F18091E0058D7F0E301C45E0F005
:103830008091E005877F18C00B3FFCE51F0709F466
:1038400061C060F502313CE5130709F481C078F4EA
:1038500000319CE5190709F477C08091E0058F7B62
:1038600001311C4509F01ECE8093E0051BCE0431CA
:10387000FCE51F0709F47AC008F470C005311C4547
:1038800009F010CE8091E00582FB992790F921E0A4
:10389000922790FB82F990FB83F9E6CF0E3F8CE5EF
:1038A000180709F449C070F40C3FECE51E0771F1EC
:1038B0008091E1058E7F0D3F1C4509F0F3CD80938B
:1038C000E105F0CD01152DE5120709F44BC060F1BB
:1038D00001301D4509F0E6CD8091E105982F9095C6
:1038E00091708E7F892B90FB81F9E9CF8091E00563
:1038F0008160BACF8091E0058260B6CF8091E0050B
:103900008460B2CF8091E1058160D9CF8091E105DB
:103910008260D5CF8091E0058064A6CF0E94CE144E
:103920008091E0058068A0CF8091E1058360C7CFDA
:103930008091E0058E7F98CF8091E1058D7FBFCF8C
:103940008091E0058F7E90CF8091E0058F7D8CCFB8
:103950000E94CE148091E0058F7786CF8091E0059C
:10396000837F82CF8091E1058C7FA9CF0E94CE1406
:103970009091E005892F97FB87F9805875CF80914A
:10398000C1050631ECE51E0709F088C38A7A91E08B
:1039900009F490E090934E0569E2811165E384E9B2
:1039A00091E00E944D070E948807C5CD80910006D6
:1039B00080FF1BC08E7F809300066091000670918F
:1039C000010680910206909103060E943D0D10921F
:1039D0000606FFEF20E732E0F15020403040E1F7EB
:1039E00000C000000E944F0EA6CD816080930006AB
:1039F00061E086950E9413199ECD4EE459E167E57A
:103A000079E10E947B0897CD47E559E16EE479E1C1
:103A1000F8CF4FE452E168E572E1F3CF48E552E1B7
:103A20006FE472E1EECF47E352E163E472E1E9CF84
:103A300043E452E167E372E1E4CF4FE152E16BE22C
:103A400072E1DFCF4BE252E16FE172E1DACF4FE496
:103A50005DE060E67DE0D5CF40E65DE06FE47DE0CF
:103A6000D0CF65E082E00E94611965CD68E086E014
:103A7000FACF6EE089E0F7CF64E18FE0F4CF67E141
:103A800085E1F1CF61E088E1B5CF62E289E1EBCF7A
:103A900061E083E2AFCF01158CE5180709F447C058
:103AA0000F3D1C4509F480C0F70100811181992365
:103AB00009F47DC0C8010E94050BD82E682FC801EB
:103AC0000E94F607B8018D2D0E9469098C01882E8D
:103AD000F701A580A2944FE0A422D280D1101092C9
:103AE000C0058091BE05877099F0DD2089F0812F97
:103AF000807F803421F080E2800F883048F082E0BF
:103B00000E9486148091BE058770CC24C3948111D5
:103B1000C12CB12EB2943FE0B322FBE0FB1508F4B8
:103B200080C0EB2DF0E0EC5FF44D0C948F280E94E8
:103B3000CE14FFEF24E33CE0F15020403040E1F7A9
:103B400000C00000F89481E08093E00080E2809360
:103B5000D8001092C9008FE19EE40197F1F700C0F0
:103B600000001DBA109268001CBC10BE1FBA109253
:103B70007A0010926E0010926F00109271001092F5
:103B800072001092C9001092BC0014B817B81AB88D
:103B90001DB810BA1092BC0015B818B81BB81EB8E2
:103BA00011BA0C94003FC7CC0E94800DC4CCC80150
:103BB0000E94CD07D82E86CF212F2F70A22E107FE6
:103BC00019F0A29420EFA222DD20C9F0AA2069F00A
:103BD00080E2800F883010F081100BC08091C10509
:103BE000A82AA092C1050E948807802F0E94211850
:103BF00018C08091C005A82AA092C005F4CF802FDC
:103C00000E94E817AA2069F0A094005E083010F026
:103C1000811046C08091C105A822A092C1050E94D2
:103C200088072B2D2850330B2430310510F40E94C7
:103C30006F08CC20A9F08091BE0580FD11C0F7016E
:103C400012828595859585950E949E14C7010E94D4
:103C50006F198091BE058595859585950E946314A1
:103C600085E0F701DE01119601900D928A95E1F74A
:103C700089819A810E94CD079A81E981F0E026E04E
:103C8000929FE00DF11D112434E5839FE00DF11D9D
:103C90001124EE0FFF1FE555FC4F8591949141CB08
:103CA0008091C005A822A092C005B9CF312F3F70E6
:103CB000932E107F103219F0929490EF9922882061
:103CC00041F081E0881631F1DD2079F1AA2041F13F
:103CD0008CCFDD2091F09091C205892F8929A11008
:103CE00003C00E9439089DCFE1E0AE12FACF9817C9
:103CF00009F497CF8093C20594CFA11006C00E940B
:103D00008207892D0E942E088CCFF1E0AF1609F4AE
:103D100088CFF5CFDD2031F021E02A1508F481CFDE
:103D2000892DDFCFA1107DCFECCFAA2051F339E34D
:103D300083128EC18FEF97EEE3E081509040E04018
:103D4000E1F700C0000084C1812F869586958370BD
:103D500061F0813009F065CFC8019370D11002C0C5
:103D600090E080E00E9443085CCFC8019370D110BE
:103D700002C090E080E00E94590853CF802FDD20E0
:103D800029F00E94AC060E9416144BCF0E94E50554
:103D9000FACF812F837009F066C0D11042CF802FF7
:103DA000829586958770880F880F602F6F70462EDA
:103DB000512C712C612C082E04C0440C551C661C1F
:103DC000771C0A94D2F740E050E0BA0104FF0FC01C
:103DD0004FE050E060E070E004C0440F551F661FE4
:103DE000771F8A95D2F74095509560957095812FF1
:103DF000869586958370823019F1D8F40091C305B9
:103E00001091C4052091C5053091C605813069F037
:103E10004429552966297729CB01BA0160237123EA
:103E2000822393230E94C414FCCE402A512A622A82
:103E3000732ACB01BA016429752986299729F2CF03
:103E400044295529662977290091C3051091C40595
:103E50002091C5053091C605CB01BA0160277127B5
:103E600082279327DFCF8695DD2011F0812F817087
:103E7000882309F4D6CE802F829586958770880F87
:103E8000880F602F6F70462E512C712C612C082EDC
:103E900004C0440C551C661C771C0A94D2F740E001
:103EA00050E0BA0104FF0FC04FE050E060E070E066
:103EB00004C0440F551F661F771F8A95D2F740959F
:103EC000509560957095812F869586958370823088
:103ED00019F1D8F40091E3051091E4052091E5056E
:103EE0003091E605813069F0442955296629772902
:103EF000CB01BA0160237123822393230E945714BC
:103F000090CE402A512A622A732ACB01BA01642931
:103F1000752986299729F2CF4429552966297729B9
:103F20000091E3051091E4052091E5053091E60547
:103F3000CB01BA016027712782279327DFCF1F703B
:103F4000DD2029F0812F0E949E14802FCACE802F61
:103F50000E942E08812F0E94631463CE802FF2EFFF
:103F60008F1609F44EC0F81578F020EF821619F17B
:103F700031EF831609F43DC0DD2009F464C0A110BF
:103F800034CE812F8F713AC093EF891609F43EC069
:103F9000E4EF8E12F1CFDD2009F44AC01F71812FAA
:103FA0000E949E1428E0129FC00111248360809318
:103FB000BE05812F23C0DD20B9F0A11032CE1F71C4
:103FC00061E070E080E090E004C0660F771F881F1A
:103FD000991F1A95D2F70091E3051091E4052091FD
:103FE000E5053091E605A6CFF1E0FA1508F419CE03
:103FF000E6CF812F8F71DD2009F4ADCF0E949E1492
:1040000010CE812F8F71DD20C9F3A5CFDD2069F09F
:104010001F7161E070E080E090E004C0660F771FE0
:10402000881F991F1A95D2F769CF0E94BF14F9CD46
:1040300081E00E94861431E03A1508F0F2CD82E06A
:104040000E948614EECDAA2039F0893309F472CE8D
:10405000802F0E94E817E5CD812F8F717CCF85E0FE
:10406000DE01119601900D928A95E1F7F701228108
:1040700089819A8121116BC90E94CD07082F6FC9D0
:1040800006311C4509F010CD80914E0569E2811181
:1040900065E384E991E00E94230785CC8272F801F0
:1040A000E35CFC45E431F10508F0F5CCE05FF44D4C
:1040B0000C948F281F93CF93DF9380915405807FBA
:1040C000A9F480915105882389F080918605D091CB
:1040D000550560914F0570915005A0915205B09122
:1040E0005305C62FC72316E0D81304C0DF91CF9124
:1040F0001F91089590E0109711F0CF3F19F40196A9
:104100008770F2CF189F9001199F300D1124F9018B
:10411000EA5AFA4F41814713F2CF40814613EFCF5D
:1041200042814111ECCF438154814A1B5B0B483CD7
:10413000510528F7809154058F7080618093540554
:10414000F901E55AFA4F80818F70806180838FE496
:1041500095E00E946F19DF91CF911F910C94240874
:10416000AF92BF92CF92DF92EF92FF920F931F9385
:10417000CF93DF93CDB7DEB761970FB6F894DEBF6C
:104180000FBECDBF8C0185E0F801DE011D960190C8
:104190000D928A95E1F7F80180819181E2802FE408
:1041A000A22E25E0B22E6091520570915305611543
:1041B000710509F43EC130914F0540915005232F00
:1041C00024232F3F09F435C1C380D480F0905105DA
:1041D000F601E61BF70BFF2009F4FBC02091540504
:1041E000522F507FE83CF10508F0BBC0511178C058
:1041F000FE2C491321C038131FC0E1101DC02F70C1
:10420000206120935405C5010E946F1980915405C7
:10421000F80185838F2D61960FB6F894DEBF0FBE2F
:10422000CDBFDF91CF911F910F91FF90EF90DF9065
:10423000CF90BF90AF900895CD2829F0282F292343
:104240002F3F09F014C120E0F22FF170DF2E20FF84
:104250003DC0209186054091550556E0241315C0B8
:104260008D879E878D859E850E94470B292F2295DD
:104270002F702230F8F0243020F59F70F9F0F8010B
:104280009581907FD9F4D12C1FC030E0529FF0016E
:10429000539FF00D1124EA5AFA4F6181961306C01C
:1042A0006081861303C06281E61210C02F5F3F4F0A
:1042B0002770D4CF9F7011F0882329F3805E883057
:1042C00010F3C8010E946F19FD2CA4CFEE2009F451
:1042D000A1CF80915405816080935405F12C9ACF31
:1042E000491312C0381310C0E1100EC0F801258325
:1042F000C8010E946F1986E0F801AFE4B5E00190B3
:104300000D928A95E1F786CF8D879E878D859E8554
:104310000E94510B882309F1EE20F9F08091540599
:10432000803270F020914F053091500538872F83EF
:104330001986DB86CA868C87CE0107960E946F1984
:1043400086E0F801AFE4B5E001900D928A95E1F7BF
:104350000E945A20FF24F3945DCFC8010E946F1978
:10436000F9CF51110AC08FE495E00E946F1986E0E1
:10437000F50111928A95E9F7B1CF49130FC03813AF
:104380000DC0E1100BC0F8012583C8010E946F1910
:1043900086E0F50111928A95E9F73CCF8D879E87DB
:1043A0008D859E850E94510B8823B9F2EE20A9F2DB
:1043B00080915405803220F220914F0530915005B4
:1043C0003A8329831B82DD82CC828E83CE010196C3
:1043D000B5CFE83CF105E0F6FE2CEE2009F4BDCFA8
:1043E000491316C0381314C08091540580FD83CF43
:1043F000982F907F09F47FCFF8018583903F09F4CF
:1044000077CF982F907F905F8F70892B858370CFA7
:104410008D879E878D859E850E94510B811190CF3F
:1044200080915405816080935405C8010E946F19E2
:10443000F1CEEE2009F491CF8D879E878D859E85E4
:104440000E94510BF82E882309F487CF86E0F801EB
:10445000AFE4B5E001900D928A95E1F780914F05A8
:10446000909150050E94470B0E945A20D3CE21E024
:104470002E25EACE1F93CF93DF93CDB7DEB7679794
:104480000FB6F894DEBF0FBECDBF4B8B5C8B6D8B30
:104490007E8B8F8B1A8A198A85E0FE017396DE0166
:1044A0001D9601900D928A95E1F786E0FE013D96FA
:1044B000DE01179601900D928A95E1F7CE010796DD
:1044C0000E94B020811112C086E0FE013796DE0105
:1044D000119601900D928A95E1F78A859B85892B2B
:1044E00029F08F81988589238F3FB1F516E080915F
:1044F00086059091550589131DC067960FB6F894EF
:10450000DEBF0FBECDBFDF91CF911F91089596E022
:10451000929FD001939FB00D1124AA5ABA4FFE0169
:10452000319601900D929A95E1F7809355050E947E
:104530002408DCCF819FC00111248A5A9A4F0E941F
:10454000B0208823D1F28091860590E00196877093
:10455000992780938605CBCF2091550530E0C9017E
:10456000019687709927409186054817190679F6B4
:104570000E94CE14109255051092860586E0EFE455
:10458000F5E0DF011D928A95E9F7B0CF8F929F92F7
:10459000BF92CF92DF92EF92FF920F931F93CF9330
:1045A000DF9380911C0190911D01892B91F08091E6
:1045B000B5018F5F8093B50181110BC00E9461121C
:1045C00090E090931D0180931C01892B11F40E94AF
:1045D000B50C22ED822E25E0922E740110E000E051
:1045E00097E0C92EC00E802F0E94FB0D8C2D0E94DB
:1045F000FB0D802F0E94D812E70199917E01D12CEA
:10460000891729F0FE0131978083DD24D3948C2D06
:104610000E94D812F7019681891709F47AC086831F
:1046200081E08D29182B0E94FD0B0F5F0730C1F62A
:104630000E940A146091B7017091B8019093B8017B
:104640008093B7012091B60130E0261B370B820F13
:10465000931F6BEF70E00E946728E82E392F082F18
:104660008093B601F090BA01FF2009F45EC0109269
:10467000BA01E091CC05F091CD05AF01425F5F4FEB
:1046800020E08BEFB82E6BEF70E0A191AB3F99F07B
:10469000CA2ED12C8E2D932F0A17E8F18C199D0963
:1046A000092E000CAA0BBB0B4E97A105B105C8F152
:1046B000DF011197BC92E417F50739F72093BA018F
:1046C000111102C0211133C01092B901A091CC0583
:1046D000B091CD059091BA01ECEEF5E080E031911A
:1046E000E40129914E01321751F03C913B3FD9F43E
:1046F0000C93AF0141505109EA01288391E01196D2
:10470000D5E0EA3FFD0759F79093BA018093B901CC
:1047100012C080E086CFDB01AC19BD098A0F9B1F58
:10472000BFCF2F2DC8CF81E0EACF1111CDCF80911F
:10473000B9018111C9CF80914A02882369F00E9492
:104740007B0B8091BB018F5F8093BB01853610F09E
:104750000E94870B0E940A14812FDF91CF911F9135
:104760000F91FF90EF90DF90CF90BF909F908F9030
:104770000895CDB7DEB72F970FB6F894DEBF0FBE02
:10478000CDBF84B7877F84BF0FB6F894A89580917A
:104790006000886180936000109260000FBE80E826
:1047A00090E00FB6F89480936100909361000FBE83
:1047B00085B7806885BF85B7806885BF0E9457042C
:1047C0000E9422058091E20084608093E200789448
:1047D000809147068823A1F01091E9001F70909105
:1047E000EC00892F817090FD80E8182B1092E90071
:1047F0008091E80083FD0E94E3141F701093E9008C
:1048000082E084BD93E095BD9AEF97BD80936E00E2
:104810000E94611290E090931D0180931C010E9400
:10482000FD0B0E940C0CE2EDF5E0ACEEB5E0119250
:104830001D9225E0E03EF207D1F78EE090E00E9465
:1048400000298093CC059093CD05FC010E962BEFAB
:104850002193E817F907E1F790E080E00E94462AEB
:104860008F3E9E4F11F00E94800D89EA8093800058
:1048700089E08093810024982C983F988AB18F7C9E
:104880008AB96E98479A8BB180638BB9769A8FE01C
:1048900090E00E94402A6093CE057093CF058093EC
:1048A000D0059093D10567708FEF689FB0011124F8
:1048B00075956795759567957727709389006093CF
:1048C000880070938B0060938A0070938D006093D2
:1048D0008C000E94B50C90E080E00E94462A8F3E3A
:1048E0009E4F11F00E94800D82E090E00E94382AD5
:1048F000809313060E942F0D9093E1058093E005AD
:1049000083E090E00E94382A682F70E090E080E019
:104910000E94C4146091E3057091E4058091E5055F
:104920009091E6050E948A0B8091E205811136C0C4
:1049300090E080E00E94462A8F3E9E4F21F00E9428
:10494000800D0E94710D88E090E00E94402A6093E3
:1049500000067093010680930206909303066E7F13
:1049600071F40E94710D88E090E00E94402A6093EB
:1049700000067093010680930206909303060E943E
:104980008008109206068091000680FF04C060E057
:1049900086950E94131981E08093E2056091E305FA
:1049A0007091E4058091E5059091E6050E948A0BDF
:1049B0008EE191E09093E8058093E705A8E1EA2E67
:1049C000F12CB0E4CB2E8CEE95E01EE0D12ED80E6B
:1049D00080914706BB24B39400E112E1853009F4CD
:1049E000AAC10E94C622E4E1F6E0ACEEB5E010E018
:1049F00000E0302F8D912191281709F4BCC190E07F
:104A0000BB24B3942827422F4B2109F4AFC19E83C6
:104A10003F838B2191E009F490E098870E940A146B
:104A20008160782F9A8789874E815F8168858A8522
:104A30000E943A22F801EC5EF94F8081B826B082DC
:104A400080910606882309F441C080910506E09113
:104A50000006E695E81BE093FC05823009F0A2C150
:104A6000F0E0E455F84FE4910E2F10E0F5E6AF2E9C
:104A7000F1E1BF2E8091FD05882389F01092FD059C
:104A80000E940A14980120953095820F931F9093ED
:104A9000FB058093FA051092FF051092FE058091A8
:104AA000FA059091FB050E9414078017910770F09A
:104AB000E091FA05F091FB050E0F1F1F1093FB0507
:104AC0000093FA058AEF95E0F501099585E0EDE0A0
:104AD000F6E0DE01119601900D928A95E1F7B09013
:104AE0000E06A0900F06109110060091110610926C
:104AF0000E0610920F0610921006109211068B2DC2
:104B00008A2909F448C080910B0690910C060E94F6
:104B100014079C0190910A06992309F4DAC1253102
:104B20003105C8F19F3F19F09F5F90930A06BB20A3
:104B300059F00E9488069FEF1B140CF491E0899FA6
:104B4000802D112480930E06AA2059F00E94880619
:104B50009FEF1A140CF491E0899F802D112480930B
:104B60000F0630910E063323B1F020910F06222359
:104B700091F045EB3403C0011124992309F47EC15F
:104B800090930E0645EB240390011124332309F47E
:104B900079C130930F06812F802B09F448C0809192
:104BA0000806909109060E9414079C01909107063F
:104BB000992309F489C125313105C8F19F3F19F0C6
:104BC0009F5F90930706112359F00E9468069FEF9C
:104BD00011160CF491E0899F802D1124809310060A
:104BE000002359F00E9468069FEF10160CF491E024
:104BF000899F802D11248093110630911006332354
:104C0000B1F020911106222391F045EB3403C0014D
:104C10001124992309F43AC19093100645EB24031B
:104C200090011124332309F435C13093110680918A
:104C30000E0690910F06892B90911006892B90916A
:104C40001106892B11F00E94161485E0FE013196A1
:104C5000ADE0B6E001900D928A95E1F70E946F08F1
:104C600090911206891709F4B3CE0E946F088093C1
:104C70001206AECE80914706843009F43DC01092F2
:104C8000E9050FB6F894A895E09260000FBEC092B7
:104C90006000109206068091EB05811116C0B0925B
:104CA000EB0580910006982F91709093EA058E7F16
:104CB000809300062FEF40E782E021504040804083
:104CC000E1F700C000000E944F0E83B7817F84602F
:104CD00083BF83B7816083BF7894889583B78E7FC5
:104CE00083BF0FB6F894A895809160008861809387
:104CF0006000109260000FBE809146068823D9F0B4
:104D00000E94611290E090931D0180931C010E940B
:104D1000FD0B0E940C0CECEEF5E0119295E0EA3FE1
:104D2000F907D9F70E94C622ECEEF5E081918111D6
:104D3000B5C0DE12FBCF80914706853009F49ACFCB
:104D40000E94CE140E946F081092EB058091EA0534
:104D5000882349F08091000681608093000660E01E
:104D600086950E9413190E94FD183BCE9F5FBB0CD5
:104D7000963009F048CE0F5F1F4F0E30110509F035
:104D800038CE8FEF8B878C871D860E940A14816036
:104D9000782F9F878E874B855C856D858F850E94D8
:104DA0003A224ECE863059F4F0E0E755F84FE491C0
:104DB0000E2F10E0E9E7AE2EE1E1BE2E5BCE89308A
:104DC00061F4E695F0E0EA55F84FE4910E2F10E01B
:104DD0007DE4A72E7FE0B72E4DCE8F3061F4E695AF
:104DE000F0E0ED55F84FE4910E2F10E067E7A62EA6
:104DF0006FE0B62E3FCE853159F4F0E0E056F84F23
:104E0000E4910E2F10E056EEA52E5FE0B52E32CEC7
:104E100008E210E026E3A22E20E1B22E883109F448
:104E200029CE833249F4EEE9F7E0059114914AE086
:104E3000A42E41E1B42E1ECE04EF11E09FEBA92E6B
:104E400090E1B92E843209F415CE853281F48E2F8B
:104E500063E00E944D28E92FF0E0E556F84FE49119
:104E60000E2F10E034ECA32E3EE0B32E03CE00ED67
:104E700017E081EEA82E85E0B82EFCCD81E080936E
:104E80000E0680CE81E080930F0685CE81E0809370
:104E90001006C4CE81E080931106C9CE09BD19BDAC
:104EA00009B400FEFDCF8091D8008F7D8093D8009B
:104EB0008091E00082608093E0008091E00081FDBD
:104EC000FCCF0E94CE1437CF2139314008F078CE84
:104ED000AECE232B09F028CE5ECE1F921FB61F92B6
:104EE00011248F939F93AF93BF938091E905811114
:104EF00013C08091C7059091C805A091C905B091D4
:104F0000CA054196A11DB11D8093C7059093C805A0
:104F1000A093C905B093CA05BF91AF919F918F919E
:104F20001F901FBE1F9018951092B9008CE08093BF
:104F3000B8000895EF92FF920F931F93CF93DF93E2
:104F4000182FEB011092BC0084EA8093BC000E94F1
:104F50000A147C018091BC0087FF27C08091B900B2
:104F6000887F883029F08091B900887F8031D9F519
:104F70001093BB0084E88093BC000E940A148C014B
:104F80008091BC0087FF24C02091B900287F90E069
:104F900080E02831B1F081E090E0203411F490E01D
:104FA00080E09195819591090CC0CF3FDC0791F28B
:104FB0000E940A148E199F098C179D0758F28EEFD4
:104FC0009FEFDF91CF911F910F91FF90EF90089588
:104FD000CF3FDC07A9F20E940A14801B910B8C17AB
:104FE0009D0770F2ECCF8FEF9FEFEBCF0F931F93E6
:104FF000CF93DF93EB018093BB0084E88093BC00E8
:105000000E940A148C018091BC0087FF11C020917E
:10501000B900287F81E090E0283211F490E080E030
:10502000919581959109DF91CF911F910F910895ED
:10503000CF3FDC0741F30E940A14801B910B8C17B1
:105040009D0708F38EEF9FEFEECF0F931F93CF9343
:10505000DF93EC0184E88093BC000E940A148C0169
:105060008091BC0087FF08C08091BB0090E0DF9179
:10507000CF911F910F910895CF3FDC0789F30E94D4
:105080000A14801B910B8C179D0750F38EEF9FEF36
:10509000EECF84E98093BC000895991B79E004C0A9
:1050A000991F961708F0961B881F7A95C9F7809567
:1050B000089587FB082E062687FD819567FD61957B
:1050C0000E944D280EF4919507FC81950895AA1B26
:1050D000BB1B51E107C0AA1FBB1FA617B70710F0E3
:1050E000A61BB70B881F991F5A95A9F78095909515
:1050F000BC01CD01089597FB072E16F4009407D04C
:1051000077FD09D00E94672807FC05D03EF49095F2
:1051100081959F4F0895709561957F4F0895EE0F8B
:10512000FF1F0590F491E02D09940E94D42A3323A7
:1051300012F48A1B9B0B0C949F280E94D42AB7FF61
:105140000895821B930B08958F929F92AF92BF9206
:10515000CF92DF92EF92FF92CF93DF93EC016881C1
:1051600079818A819B81611571058105910521F401
:1051700064E279ED8BE597E02DE133EF41E050E01B
:105180000E94802A49015A019B01AC01A7EAB1E4BF
:105190000E949F2A6B017C01ACEEB4EFA501940143
:1051A0000E94AD2ADC01CB018C0D9D1DAE1DBF1DE3
:1051B000B7FF03C00197A109B04888839983AA83E8
:1051C000BB839F77DF91CF91FF90EF90DF90CF90DF
:1051D000BF90AF909F908F9008950E94A42808954B
:1051E00080E091E00E94A4280895B0E0A0E08093C0
:1051F000000190930101A0930201B093030108956F
:105200000F931F93CF93DF938230910510F482E0C8
:1052100090E0E0915606F091570630E020E0B0E0D3
:10522000A0E0309799F42115310509F447C0281BF7
:10523000390B24303105C0F58A819B8161157105D8
:1052400071F1FB0193838283FE0111C04081518182
:105250000281138148175907F8F04817590799F444
:10526000109761F012960C93129713961C93329636
:10527000CF01DF91CF911F910F91089500935606B2
:1052800010935706F4CF2115310519F04217530733
:1052900018F49A01BD01EF01DF01F801C2CF90932C
:1052A000570680935606D0CFFE01E20FF31F81937D
:1052B00091932250310939832883DACF2091540603
:1052C00030915506232B41F42091060130910701BE
:1052D0003093550620935406209104013091050126
:1052E0002115310541F42DB73EB740910801509189
:1052F0000901241B350B4091540650915506421765
:10530000530708F0B5CF241B350B2817390708F4CD
:10531000AFCFBC016E5F7F4F2617370708F4A8CFC9
:10532000640F751F7093550660935406FA018193BC
:1053300091939ECFCF93DF930097E9F0FC013297D2
:1053400013821282C0915606D0915706DE0130E0DA
:1053500020E02097A1F420813181820F931F2091BA
:105360005406309155062817390709F067C0F093A5
:105370005506E0935406DF91CF910895DA01AE17F8
:10538000BF0708F040C012964D915C9113979D01A4
:105390004115510599F7D9011396FC93EE93129795
:1053A0004D915D91A40FB51FEA17FB0779F4808139
:1053B00091810296840F951FD90111969C938E932B
:1053C0008281938113969C938E931297B0E0A0E014
:1053D0008A819B810097B9F5FE0181919191E80F37
:1053E000F91F80915406909155068E179F0719F664
:1053F000109761F51092570610925606D0935506F5
:10540000C0935406B8CFB383A28340815181840FE7
:10541000951FA817B90771F44E5F5F4F8D919C914E
:105420001197480F591F5183408312968D919C917B
:10543000938382832115310509F0ADCFF093570690
:10544000E093560698CFDE01EC01C2CF13961C9272
:105450001E921297D3CFFC014150504030F0019082
:105460000616D1F73197CF01089588279927089517
:10547000F999FECF92BD81BDF89A992780B508951C
:10548000A6E1B0E044E050E00C94722AA8E1B0E05C
:1054900042E050E00C94722A262FF999FECF92BD7B
:1054A00081BDF89A019700B4021639F01FBA20BDE9
:1054B0000FB6F894FA9AF99A0FBE08950396272F1B
:1054C0000E944D2A0E944C2A252F0E944D2A242FEB
:1054D0000C944D2A0196272F0E944D2A0C944C2A99
:1054E000DC01CB01FC01F999FECF06C0F2BDE1BDA4
:1054F000F89A319600B40D9241505040B8F7089593
:10550000052E97FB1EF400940E94972A57FD07D0A2
:105510000E94B22A07FC03D04EF40C94972A5095AF
:105520004095309521953F4F4F4F5F4F089590958F
:105530008095709561957F4F8F4F9F4F08950E9482
:10554000D42AA59F900DB49F900DA49F800D911D0E
:1055500011240895B7FF0C949F2A0E949F2A821B52
:10556000930B0895A1E21A2EAA1BBB1BFD010DC0CF
:10557000AA1FBB1FEE1FFF1FA217B307E407F50703
:1055800020F0A21BB30BE40BF50B661F771F881FDF
:10559000991F1A9469F760957095809590959B0175
:1055A000AC01BD01CF010895A29FB001B39FC0011E
:1055B000A39F700D811D1124911DB29F700D811D3F
:1055C0001124911D0895F894FFCF600B600B690BB7
:1055D000690B6B0B690B690B690B600B600B700B34
:1055E000690B690B700BE40BF00BF50BEE0BF30B77
:1055F000FA0BF80BC815F0158C17F0158C1723163D
:1056000044168C1742174F17DC1DDC1D561E561E04
:10561000A41EBE1E111E111EC91E9F1FAE1FAE1F4F
:10562000D61CFD1C041D091D0E1D131D181D1D1D5E
:10563000221D271D2C1DA81B311D361D391D3C1D8B
:085640003F1D421D451D481DE0
:105648000100000000005806200001191A1B1C1D4B
:105658001E1F20212201020145054B022000E20500
:10566800750C540C500C4C0C01000102020202068D
:1056780006060909090909090F0F0F0F0F0F15155C
:10568800151819191919191919191919232425255A
:1056980025252525818283E200E900EA00B500B6C8
:1056A80000B700CD008301CC008A0192019401214A
:1056B80002230224022502260227022A02B300B48A
:1056C800006F007000404D6D66011901AC00C20703
:0456D800DB07F407F1
:00000001FF
